:020000021000EC
:10B000000080002091D20100D1D20100D3D20100F2
:10B010000000000000000000000000000000000030
:10B02000000000000000000000000000D5D2010078
:10B030000000000000000000D7D20100D9D20100BA
:10B04000DBD20100DBD20100B1C30100DBD2010081
:10B05000DBD2010000000000D1BB0100DBD2010007
:10B06000DBD20100DBD20100DBD20100DBD2010028
:10B07000DBD20100DBD20100DBD20100DBD2010018
:10B08000DBD2010035B30100DBD20100DBD20100CD
:10B0900011B40100DBD2010061D20100DBD201005A
:10B0A000DBD20100DBD20100000000000000000044
:10B0B0000000000000000000000000000000000090
:10B0C00010B5064C2378002B07D1054B002B02D07E
:10B0D000044800E000BF0123237010BDF0200020D1
:10B0E0000000000000E80100044B10B5002B03D065
:10B0F0000349044800E000BF10BDC0460000000046
:10B10000F420002000E80100402292029A1A9246A0
:10B110007047C046174B002B00D1134B9D46FFF7DD
:10B12000F3FF00218B460F461348144A121A00F011
:10B1300065F80E4B002B00D098470D4B002B00D02C
:10B1400098470020002104000D000D48002802D07F
:10B150000C4800E000BF00F02DF82000290001F0AD
:10B160004FFF00F011F8C04600000800000000008A
:10B170000000000000800020F020002018250020A2
:10B180000000000000000000084B10B50400002B78
:10B1900002D0002100E000BF054B1868836A002B35
:10B1A00000D09847200000F031F8C04600000000B1
:10B1B00014E6010070B500260C4D0D4C641BA41064
:10B1C000A64209D1002603F019FA0A4D0A4C641B65
:10B1D000A410A64205D170BDB300EB5898470136C4
:10B1E000EEE7B300EB5898470136F2E7E420002081
:10B1F000E4200020E4200020E82000200300821842
:10B20000934200D1704719700133F9E7FEE7C04659
:10B21000002300B585B001AA906000210348138087
:10B22000536000F005F805B000BDC04601400000C5
:10B23000BFF34F8F034B044ADA60BFF34F8FC04612
:10B24000FDE7C04600ED00E00400FA0510B5002956
:10B250000ED0002A0AD01400531E1C401A4205D1F9
:10B26000846001608380C460002010BD0920FCE779
:10B270000E20FAE7030010B59C888068DA68121A7D
:10B280000420944207D30020DA6814401A6811554C
:10B29000DA680132DA6010BD8268C3689A420AD067
:10B2A0008368828813400268D35C0B708368013323
:10B2B0008360002070470520FCE7C0468021802382
:10B2C000184A8902D1508022D221174B520289009C
:10B2D0005A5040395A5001222F205A600138C04636
:10B2E000C046C046C046C046C046C046C046C0462E
:10B2F000C046C046C046F1D19A6000230B4A2F20B9
:10B3000013600138C046C046C046C046C046C0466D
:10B31000C046C046C046C046C046C046F1D1044AF9
:10B320001370704700E100E0001001402021002070
:10B3300011210020A021F0B50023C6462B4A490068
:10B3400000B553500431535004315350043153501D
:10B350004C39535004315350254B1B68002B35D0CA
:10B36000244900265458244A244F1268A41A002263
:10B3700024029046240A02E0002D18D02B001A68FF
:10B38000A24214D8A41AB6181A7CDD69002AF3D098
:10B39000424699691A745A693B68002B19D010000B
:10B3A00098470028E8D0FFF733FF002DE6D1144975
:10B3B000144A0B7812789A420ED0134A9B009E5082
:10B3C00080218023114A5B004903D15080BCB846DC
:10B3D000F0BD08009047CFE70132D3B2022B01D075
:10B3E0000B70EAE700230B70E7E7C046001001404E
:10B3F0002821002004050000202100200C2100202D
:10B400001D2100201C2100201421002000E100E06B
:10B41000F0B5DE4657464E464546E0B5B54B8DB0D5
:10B420001B68B54A0293B54BB5491B68097801936F
:10B430001378994200D1CBE10133DBB2022B00D16A
:10B4400026E11370AF4A9B009B58AA4A9846029B7C
:10B4500043441B021B0A05931360AB4B1B789C46AD
:10B46000013BDBB206936346002B00D126E20123A9
:10B4700007930022A54B91469B461B6809929A466A
:10B480004246A34B0B9203931B7862460893069B9C
:10B49000019EDB000A9353441800059B049200931D
:10B4A00000239846037845789D421ED05900426893
:10B4B000C918C900571801338278DBB2D21A541E5A
:10B4C000A241524213404268525C022A14D0032A1D
:10B4D000EAD1002EE8D04A463274F669002EFAD13D
:10B4E0000122457890469D42E0D10300083B824509
:10B4F00039D018000378D6E77968002ED4D0B1424D
:10B5000028D032001400D269002ACDD09142F9D15E
:10B51000A1420AD01568D269E261002AC3D011683D
:10B520008C46654415604578BEE7F669002E05D067
:10B530000D68CA6901218846F1E734000121754A86
:10B540008846916000210091013122000026099176
:10B550000891DFE7F1690029EFD0320034000E00D6
:10B5600001218846D6E7049B9C46434604930B9BE7
:10B570009846099B002B00D13AE1039B089A1A7068
:10B580005C4B009A1A60049B002B00D136E15B4BA8
:10B590001E60019B9B1B5A1E9341DBB20493079BC9
:10B5A000002B00D02FE100275B461B68039A9C46C6
:10B5B000029300231278994601920A9A300062445D
:10B5C0009C46009B059698461600002F27D03A000F
:10B5D0007C68BB68FF6941464F4D611A0902090A40
:10B5E000A9424CD8CB18136061465160916001218B
:10B5F00011746146D16100285FD00168040099424E
:10B6000054D2A246E4699B465B1A002C67D11360B2
:10B610005346D461DA6102001000002FD7D133788D
:10B620007478A34250D07268B57800905900C91858
:10B630000133C900DBB25118AB424CD033700878EB
:10B6400001283ED148688246007C8346002838D1D4
:10B6500052468C6800985460CB6893600D69D56041
:10B660004969916101990029B5D05946002451607A
:10B670004146294D611A0902090AA942B2D9414637
:10B680000C1B2402240A9C4204D21B1B1360ABE750
:10B690000023D6E66346136053609360012313745E
:10B6A0006346D361002808D000230168CB1A0360E9
:10B6B0000123D06199461000AFE70123100099469D
:10B6C000ABE79C42B2D100983300029A083BB242E9
:10B6D00024D01E00A3E7634633700023AFE725683C
:10B6E0009D4204D369185D46491B21608FE72900FC
:10B6F00087E7C046202100201C21002028210020AF
:10B700001D21002014210020242100202C210020B4
:10B710001021002000100140FEFF7F004B46059ED7
:10B72000002B4CD0704B1860B04249D000284CD050
:10B7300003686E4A6E486F4D81586F4A2E781468C0
:10B7400098460A1B1202120A0332002E00D190E022
:10B750004346934200D213001B19A82464481B02DD
:10B760001B0A624DE400035142595B1A521A12023D
:10B77000120A1B0203321B0A9A4216D9435903517B
:10B780002F200138C046C046C046C046C046C0460D
:10B79000C046C046C046C046C046C046F1D1802320
:10B7A0008021564A5B008902D1500023039A13700E
:10B7B0000DB0F0BCBB46B246A946A046F0BD300075
:10B7C000049B002BF1D00028B2D1FFF777FDECE706
:10B7D0004B4B1B789C46013BDBB206936346002B28
:10B7E00000D17BE0029B059300239846079340E637
:10B7F000059B0093049B002B00D0C8E6079B019E8D
:10B80000002B00D1CFE6002E00D16AE04446330081
:10B810000021002700200025B04612E0DE68A41AAF
:10B8200080181D60DA69002E07D0DF611F000299C1
:10B830009E6009180902090A59600121002A39D0BD
:10B8400013001A68A242E9D94646A046002902D050
:10B850001E0025490B604146521A1A606346002BB0
:10B860003AD001230493274B9B46069BDB000A93A7
:10B870009AE68026D1277602BF00C651403FC651C6
:10B88000C02380271D4EBF025B00F75037600126A2
:10B8900006602F200138C046C046C046C046C0469C
:10B8A000C046C046C046C046C046C046C046F1D1AC
:10B8B0002E704DE70C4B00261A60CFE7019B002B42
:10B8C00007D01E00059B0093FF2306930E4B0393A6
:10B8D0009CE700260C4B0393300027E70A4B0393A9
:10B8E00063E7002704935FE6282100200405000099
:10B8F00000100140112100202021002000E100E083
:10B90000242100202C2100201021002070B5161EBB
:10B9100007DD0C008D182078013400F0DDF8AC4212
:10B92000F9D1300070BDC04610B50C00200000F009
:10B93000B9F80528FAD0012010BDC04630B504780A
:10B9400085B0012C19D0022C42D0002C01D005B0BA
:10B9500030BD264D264C29002000FFF79DFC002815
:10B9600031D0A268E3689A42F1D1032302AA13708E
:10B97000204B10001B689847E9E743681E4D197873
:10B980002800FFF777FC002815D1AA68EB689B1AFE
:10B99000012B05D102AB1870164B02A81B68984703
:10B9A000A968AA88EB685B1A9A42D0D30121134890
:10B9B00000F05EFCCBE702AB1C700E4B03901B68E3
:10B9C00002A89847ECE70121280000F0F1FBC8E746
:10B9D00002AB1C70C368012108480193039300F077
:10B9E00047FC044B02A81B689847B0E75821002089
:10B9F0004421002030210020342100205421002047
:10BA0000F0B51E00214B05000C0089B01A6000291A
:10BA10003AD08A881E480968FFF718FC002801D030
:10BA200009B0F0BDA289A1681A48FFF70FFC0028F1
:10BA3000F6D168460300184A92CA92C392CA92C3CA
:10BA400012CA12C3AB6883612B7906775A1E9341E1
:10BA500003756B795A1E93410E225B421340437566
:10BA6000EB788360AB78C3602B7843606B7800938E
:10BA70000A4900F00FFB0028D2D100F083FC01211D
:10BA8000074800F0F5FBCBE70720C9E7302100208D
:10BA9000342100204421002018E601003DB90100B6
:10BAA0005421002070B50A4C0500A168A288E36803
:10BAB0005B1A9A4204D029002000FFF7EDFB70BD0D
:10BAC0000121044800F0D4FB0028F4D00520F6E75B
:10BAD000342100205421002070B50D4D01002800B4
:10BAE000FFF7C8FB041E01D0200070BD00F0B8FBBA
:10BAF0000028F9D1074E28003100FFF7CDFB0028C0
:10BB0000F2D10121300000F053FB0400ECE7C04605
:10BB1000442100205821002082B00190019B002B7D
:10BB200014D0019B0A48013B01930138C046C0462E
:10BB3000C046C046C046C046C046C046C046C046D5
:10BB4000C046C046F1D1019B002BEAD102B070473C
:10BB5000E7030000F0B500281EDB1B4B84089C4661
:10BB60000323C2B21840FC331F00C026C000890165
:10BB700087400B408340A4006444B600A559BD43F0
:10BB80002B43A3511F231A40C0211E3B93400E4A52
:10BB9000490053501360F0BD0C4C0325A4460F23FD
:10BBA000FF240340C2B228402500C000890185401F
:10BBB0000C408440083B9B089B006344DE69AE4315
:10BBC0003443DC61DEE7C04600E100E000ED00E068
:10BBD000F0B55746DE464E464546E0B5C54A002715
:10BBE000136883B0012B00D1AAE1C34B1A68012A64
:10BBF00000D199E1C14B1A68012A00D188E1C04BFC
:10BC00001A68012A00D159E1BE4B1A68012A00D1F5
:10BC1000A2E1002F06D103B0F0BCBB46B246A94654
:10BC2000A046F0BD00239A46A223DB0099460323D9
:10BC3000B54C0126A04600259B463E420ED0B34A95
:10BC4000AB0094464A466344985899585B46090CA1
:10BC500019401F23000A18402368984701357600D1
:10BC60000434042DE9D14446002FD4DA0023012501
:10BC7000984640339B466D425B46E1564B1C2BD0A9
:10BC8000C9B2C023080098432B000122C3400027FB
:10BC90001A4222D0231820331B7889095BB29B00FB
:10BCA000E358002B00D1E3E082401700032900D1C4
:10BCB000E3E0A026F605B446E02682006244F600E2
:10BCC0009659B603B60FB4465646374200D0ACE09C
:10BCD0006646032E00D14BE100274123E1564B1C61
:10BCE0002ED0C9B2C023080098432B000122C340C4
:10BCF0001A4225D08B090093231820331B785BB29E
:10BD00009B00E358002B00D1C5E082409446009A86
:10BD1000032A00D1C5E0A026F605B146E026820040
:10BD20004A44F60096591100B603B60FB146524682
:10BD30006646164200D081E04A46032A00D137E128
:10BD40004223E1564B1C2DD0C9B2C02308009843B2
:10BD50002B000122C3401A4224D08B0900932318E0
:10BD600020331B785BB29B00E358002B00D188E0A6
:10BD700082409446009A032A00D187E0A026F60567
:10BD8000B146E02682004A44F60096591100B603F7
:10BD9000B60FB1465246664616425DD14A46032A60
:10BDA00000D143E14323E1564B1C26D0C9B2C02346
:10BDB00008009843C540BF3B2B421ED022182032BA
:10BDC0001278890952B29200A258002A6ED083409C
:10BDD0001D0003296ED0A026F605B446E026830098
:10BDE0006344F6009E59B603B60FB4465646354234
:10BDF00011D16546032D00D1F7E0002F00D10AE7ED
:10BE0000A022A223D205DB00D3589A4500D102E735
:10BE100045469A4630E76546022DEED1032900D10A
:10BE20002DE1002AE9D09047E7E76646022E00D0D0
:10BE300052E7032900D116E10027B4E04A46022A5E
:10BE400000D07DE7009A032A00D110E1002B00D139
:10BE500076E70099984773E74A46022AA2D1009AEA
:10BE6000032A00D107E1002B9CD00099984799E75D
:10BE7000032900D031E78240170042463A439046FA
:10BE800017E7009903298DD18240944642466646C1
:10BE90003243904672E70099032900D050E7824070
:10BEA0009446424666463243904634E70329A4D17D
:10BEB00083401D0043462B4398468CE7C12213491B
:10BEC0009200895808220A4200D19DE6002119609B
:10BED0000C4B17431A68012A00D0A3E61960A02270
:10BEE000A223D205DB00D3589A4680231B061F43AA
:10BEF0009AE6C046006100400461004008610040CD
:10BF00000C6100407C610040602100200060004026
:10BF1000C1225D499200895804220A4200D16EE68E
:10BF20000021174319606AE6C122574992008958D7
:10BF300002220A4200D15DE600211743196059E64A
:10BF4000C1211F005048890041580F400B4200D1C9
:10BF50004BE60023136048E600221A60A022A223C9
:10BF6000D205DB00D3589A46002FBED1474C7DE660
:10BF7000032900D060E78026B6020096E027FF0084
:10BF8000D659B446424EB14666464F463E40E0273B
:10BF9000FF00D651D659B4466746009E3E43E0277F
:10BFA000FF00D6510127002B00D196E6984794E672
:10BFB000009A032A00D049E7802292020192E022EF
:10BFC000D2009146324E8A580137324094464A4652
:10BFD00066468E508A58FFB294466646019A3243AE
:10BFE00094464A4666468E5030E7032900D018E74B
:10BFF0008025AD020095E026F6009E59B446244EF9
:10C00000B14666464D462E403500E026F6009D516D
:10C010009D59009E2E433500E026F6009D51002AD2
:10C0200000D1EDE60137FFB29047E6E6009A032A19
:10C0300000D018E7802292020192E022D2009146BD
:10C04000134E8A580137324094464A4666468E500F
:10C050008A58FFB294466646019A324394464A464D
:10C0600066468E50FFE6C026B602009686E7C022DE
:10C0700092020192A3E7C02292020192DDE7C0255D
:10C08000AD020095B7E7C046006000406021002087
:10C09000FFFFFCFFF0B5D6464F464646C0B53A4CCA
:10C0A000E37E002B6DD1002867D0026801339340F6
:10C0B000A022A125D205ED005351A946032503680E
:10C0C000AA46C133FF339B009D5000254368AC4610
:10C0D000C133FF339B009D5087692C4B2C4D5F5122
:10C0E000077D457D3D432B4FDD5145680768A846D8
:10C0F000294D5F514746294D5F51057D012D18D1CE
:10C10000E0267600B04687684744BE006746B750D1
:10C11000C668B5404E4695515646C568C135FF358F
:10C12000AD00AE504E46C26885689A51A222D20038
:10C130009D5003696160236000290DD00023184AD7
:10C14000017F1360174A18481360C1230F4A9B00F0
:10C15000D0500220FFF7FEFCA02304210B4ADB0095
:10C16000D150002300202376E3820133FF33638321
:10C17000E0BCBA46B146A846F0BD80230B489B0000
:10C1800096E70820F4E7C046A821002000200040E0
:10C19000240500006C0500000C05000014050000DB
:10C1A0001C210040442100408000020038E60100CC
:10C1B000F0B5254A937D002B16D101259175234CAE
:10C1C0002349938290600B6025600B60938A214D18
:10C1D000C05C938A204E01339BB29382A85153686E
:10C1E0000020002B02D0F0BD1120FCE780200027AA
:10C1F0004000947D938AA34203D312E0938A834242
:10C2000002D00B68002BF9D0938A8342F2D00F60E2
:10C21000938A9468E45C938A01339BB29382AC5115
:10C22000E7E78023918A5B0099420AD008490B68AE
:10C23000002BFCD001210020084B196000239375CE
:10C24000D1E70F20FAE7C046A821002008200040CF
:10C250001C210040002000401C0500000C20004074
:10C26000024B987D431E9841C0B27047A821002020
:10C27000F0B53E4B5A68002A05D0C22481263C4DB9
:10C28000A400B6002E51DC7D002C0ED01C7E002CAC
:10C290005AD118611976002A18D0C12381210020B3
:10C2A000334A9B008900D150F0BDD975997ED86082
:10C2B0005C761C760029EED12E4A11602E4A116060
:10C2C00001212B4A11605A68002AE6D12B4DA32781
:10C2D0002A60274A274E9446274CFF003068216881
:10C2E0002A68002909D1002A29D00021D9750028FF
:10C2F00028D10F30002AD7D115E001001143F4D125
:10C30000DA7D002A17D0216061465A7ED868C95963
:10C3100081545A7E0132D2B25A765A7ED97D9142E8
:10C32000DCD80022DA759B7E002B17D00122104B3F
:10C3300000201A60B8E722606246D259EDE7002873
:10C34000CCD0DA750320AFE7002A0CD0C1238121BD
:10C35000074A9B0089001120D150A5E70122084B14
:10C3600000201A60A0E711209EE7C046A821002007
:10C3700000200040242100400821004044210040CA
:10C3800004200040064A937E002B07D105490B602C
:10C3900005490B60054901330B6093767047C04631
:10C3A000A821002024210040082100400020004056
:10C3B000C12210B55D4B92009A5884B0920557D5B2
:10C3C0005B4A1168002953D000211160C2228121EB
:10C3D000920089009950574B9A7E002A02D1012180
:10C3E000554A1160022269460A7090214F48C900DF
:10C3F0004258425069460392DA7D68460A72DA680A
:10C4000001920022DA751A760ACB98474B4A1368D4
:10C41000002B10D0474B998A9C7D8C4261D900211A
:10C4200011609A8A9968895C9A8A013292B29A82DA
:10C430003E4A434BD150434B1A68002A16D0002283
:10C440001A603C4B9A7E002A02D00121374A1160C3
:10C45000DA7D002A0AD0002268460121DA755A7E68
:10C4600001700272DA680ACB0192984704B010BDDD
:10C47000C1232E4A9B00D3585B07C7D532490B68AE
:10C48000002BC3D02B4BD87D002838D0002008606B
:10C49000A320C000597E1258D86842545A7E0132F7
:10C4A000D2B25A765A7ED97D9142AFD11A7E002AF5
:10C4B0002AD19A7E002A02D101211F4A1160C2228C
:10C4C00081201A499200800088500022684601218C
:10C4D000DA755A7E01700272DA680ACB01929847C7
:10C4E00094E700211160002CA5D06A4611701472E7
:10C4F0009A686846019299750ACB98479BE708604D
:10C50000A321C9005258CDE7DA751A69D968DA60F3
:10C5100000226C46587E1A765A76013220722270BA
:10C52000684601910ACB984770E7C046002000405A
:10C5300024210040A8210020042000401C210040AC
:10C540001C050000442100400821004029DF7047FD
:10C5500028DF7047F0B5C646802700B5404C7F0500
:10C5600026783969B500AB199B00E318DA8889B2DF
:10C5700082B08A4222D9386959690004000C1D89A9
:10C58000101A1B693A69EB1892B292080918181828
:10C59000FFF7DCFF021E06D0112826D10823314AFE
:10C5A00011680B43136080235B051B692E4A1B0433
:10C5B0001B0C136002B080BCB846F0BD18895969E5
:10C5C0001B699208C018FFF7C1FF021E06D0112890
:10C5D00024D10823234A11680B431360AD19AD0021
:10C5E0006419E288204B1A60E4E723789800C018A9
:10C5F000800025186B692979ED680C3020186C00D3
:10C6000064191A4DA4002D680095194D6459A0476E
:10C610000422184B1A7000F02FF8C4E72378AD19E4
:10C620009800C018800027187B693979FF68984600
:10C63000BC460E4B7F001B68674400930C4B0C30CC
:10C64000BF002018FF584346B8470422094BAD00ED
:10C6500064191A7000F010F8E288034B1A60A9E719
:10C66000D4210020A4220020B4220020C4210020D4
:10C67000C8210020BC220020F8B54746CE4680B530
:10C680003C4A3D4950780B783C4E3D4D14783D4F27
:10C6900000280FD1022B24D004D8002B59D0FFF74B
:10C6A00059FF03E0032B01D100F08CF9C0BCB9465F
:10C6B000B046F8BD022B14D0F4D8A0000419A40091
:10C6C0001219901D002BEAD113790088032B43D057
:10C6D000042B41D0012B46D00023386033602B60FF
:10C6E000E4E7A3001C19A40014192369264E9846F8
:10C6F00080235B05196940460904090C994600F03E
:10C70000EDFD224B424618604B461969E38807004D
:10C710000904501E1818090C356800F0DFFD874227
:10C720000CD003239D431A4B35601B68002B0AD1A4
:10C730000222184B1A7000F045F9B7E701239D4318
:10C7400001331D4335600022124B1A7000F072F95C
:10C75000ACE733602B60A9E70023386033602B60BF
:10C7600000F01AF8A2E701230B7000233860336051
:10C770002B6094E7D4210020BC220020B8220020A6
:10C78000B4220020C4210020A4220020A0220020E6
:10C79000A8220020BD220020F8B557464E46454647
:10C7A000DE46E0B55C490B789A00D31880229B00E6
:10C7B000CB18DF685205116991467A00D2199000B2
:10C7C000564A1E6912181089548952684443A418A5
:10C7D000DA881B8915009846514B92469B460023E8
:10C7E0005A460904454430001360090CAD1900F0A5
:10C7F000FBFD002945D0022F4CD04B463000196973
:10C8000040440904090C00F0EFFD464B890819600B
:10C810004B461969AC4229D009042800090C00F0E4
:10C82000E3FD002922D080235B05196998461B6926
:10C8300089B29946A0B200F051FD4B46AFB2060056
:10C8400099B2380000F04AFDB6B280B2864259D0A3
:10C8500043461C691969380089B200F0C5FD5B4682
:10C860002404240C89B2641AA4081C6002222E4BF2
:10C870001A70FFF701FFF0BCBB46B246A946A046BE
:10C88000F8BD4B461B699BB29A4503D0AC4226D0FB
:10C89000022F0FD180235B05196930000904090CB0
:10C8A00000F01CFD0322214B18601F4B1A70FFF78C
:10C8B000E3FEE0E74B463000196940440904090CE7
:10C8C00000F092FD174B890819604B461969280042
:10C8D0000904090C00F088FD0029C7D0A3E74346EE
:10C8E000002BD7D0022FD5D04B46300019694044D9
:10C8F0000904090C00F078FD0A4B890819604B46C1
:10C900001B69B3E75A4623042D041B0C2D0C5B1B3B
:10C910009B081360AAE7C046D4210020C82100204C
:10C92000C0220020A8220020BC220020A02200203B
:10C93000F8B5CE46474680B51F4D08AC24886E78C2
:10C940009946A4460A2E30D02F78F419092C1ADC07
:10C95000A30098464444A4002C196261220020716F
:10C960000C3209C909C24B46E38063462381134B4D
:10C9700001361A7800246E70002A06D02000C0BC50
:10C98000B946B046F8BD0A3CE2E7BA00D719BF0085
:10C99000ED190B4AE98811602A79012A07D0033A78
:10C9A000012AEBD8FFF7F8FEE8E70424E6E71A705F
:10C9B000FFF762FEE2E7C046D4210020BC2200203F
:10C9C000C421002070B5154B82B01868FFF7C0FD78
:10C9D000021E06D0112806D10823114A11680B4304
:10C9E000136002B070BD0F4E307884002418A4008C
:10C9F000200035196B692979ED680C306C006419D9
:10CA0000094DA4002D6880190095084D6459A04770
:10CA10000422074B1A70FFF72FFEE2E7A022002046
:10CA2000A4220020D4210020C4210020C8210020FD
:10CA3000BC22002070B5224B82B05869431C1FD025
:10CA400080235B0519690904090C00F047FC80226A
:10CA50005205136911691B04421E0904180C504346
:10CA6000090C00F03BFCFFF773FD021E06D01128F5
:10CA70000AD10823134A11680B43136002B070BD3A
:10CA800080235B055869E2E70F4E30788400241854
:10CA9000A400200035196B692979ED680C306C0011
:10CAA00064190A4DA4002D6880190095084D645939
:10CAB000A0470422074B1A70FFF7DEFDDEE7C046F1
:10CAC00000100010A4220020D4210020C421002046
:10CAD000C8210020BC22002010B500202C240022F8
:10CAE0000121454B18551434185502341A53023499
:10CAF0001A531034185502341A5302341871D9607D
:10CB00001876196259639964D9651A80DA801A61B6
:10CB10005A611A815A835A629A629A83DA859A63B1
:10CB2000DA631A86DA641A651A665A661A5310347A
:10CB3000185502341A5302341A531034185502345B
:10CB40001A530634195104341A5104341A510C3C46
:10CB50001A531034185502341A5306341951043438
:10CB60001A5104341A510C3C1A531034185502341B
:10CB70001A530634195104341A5104341A510C3C16
:10CB80001A5310341855BA201A5206301967195022
:10CB9000C3315A5004315A500C395A679A675A5265
:10CBA000164B1A80164B5869431C21D080235B0515
:10CBB00019690904090C00F091FB020080235B0550
:10CBC0001B69023A1B04180C50430E4B0E4A1860A6
:10CBD000002313600D4A0020136093600C4A137009
:10CBE0000C4A13600C4A136004220C4B1A6010BDEF
:10CBF00080235B055A69E1E7D4210020AC220020A4
:10CC000000100010B0220020A0220020C821002027
:10CC1000BC220020B8220020B4220020A422002040
:10CC2000F8B5CE46474680B5364B04001B680D006C
:10CC30005B0761D500285DD000295BD00368002B1D
:10CC400058D080225205136986889BB29E424CD8E8
:10CC50000F2E4AD9C788002F47D02B4B77439946D0
:10CC60001B689846294B47445869431C46D01169B4
:10CC70000904090C00F032FB0100802252051369FF
:10CC800001391B04180C484387422ED8B3072CD116
:10CC90001F4F3E88012E33D043462E606B604546C1
:10CCA00073001C499B199B00C81845602068013619
:10CCB000C8506068A5888446E08864460833CC5034
:10CCC0001369684311691B041B0CC018090401385F
:10CCD000090C146900F08CFB4B462404240C4443DB
:10CCE000444400201C603E8000E00720C0BCB946E0
:10CCF000B046F8BD0E20F9E70820F7E75169BCE718
:10CD00000420F3E7A4220020B0220020001000102D
:10CD1000AC220020C821002030B503001048006874
:10CD2000400718D5002B18D0002A16D01868002804
:10CD30000FD10C4D2C68002C0BD02C895B68614303
:10CD4000C9186B895C436B68E418A14201D203C225
:10CD500030BD0720FCE70820FAE70E20F8E7C046C0
:10CD6000A4220020C8210020F0B51A4C83B024680A
:10CD7000640729D5002929D0002827D00468002C71
:10CD80001FD1154D2C68002C1BD02E896C896D6825
:10CD9000744347686419A74213D2002A11D09642FF
:10CDA0000FD3D418A6420CDB9C0711D10F43BC074C
:10CDB0000ED1009313000A0001000120FFF7B8FD17
:10CDC00000E0072003B0F0BD0820FBE70E20F9E7E4
:10CDD0001020F7E7A4220020C8210020F0B5C646A5
:10CDE00000B51500254A060012680C0082B05207F3
:10CDF0003ED500293ED000283CD00A68002A31D117
:10CE00001F4A90461268002A2CD0474642467F6847
:10CE10004868BC46118952894A436244904221D2F3
:10CE2000002D1FD0A9421DD3EA1891421ADB9A07A0
:10CE300022D1032132000F000243174011421BD1BF
:10CE400019182A00300000F0BFFB2268009553003B
:10CE50009B1842469B00D558022133000022200037
:10CE6000A84700E00727380002B080BCB846F0BDF4
:10CE70000827F8E70E27F6E71027F4E7A42200209A
:10CE8000C821002070B50378012B04D0022B02D0FA
:10CE9000002B04D070BD4068FEF7BAF9FAE7124DD6
:10CEA000124C28782018FEF7FDFD2B780133DBB2F9
:10CEB0005A1EA15C2B700A2901D0132BEAD9002A33
:10CEC0000BD000262078FEF707FE0028FAD12B7839
:10CED0000136013B01349E42F4D30A20FEF7FCFDEB
:10CEE0000028FAD12870D5E7E8220020D4220020BB
:10CEF00010B5FFF7F1FD002803D1044800F06EFBE8
:10CF000010BD034800F06AFBFAE7C04658E601008E
:10CF100074E6010000B5094B85B0694602A8039389
:10CF2000FFF77EFE002804D1054800F057FB05B04E
:10CF300000BD044800F052FBF9E7C04664000A0057
:10CF400090E60100ACE6010070B50D4C0D4D2200DD
:10CF500002212800FFF7E0FE00280CD10A4800F06B
:10CF60003DFB6968094D280000F038FB2800616826
:10CF700000F034FB70BD064800F030FBFAE7C04615
:10CF8000CC220020C4220020C4E60100E0E601001B
:10CF9000E8E60100412300B50A4883B0019300F0A0
:10CFA0001DFB00231022084801A9FFF7DDFE002821
:10CFB00004D1064800F012FB03B000BD044800F0A5
:10CFC0000DFBF9E704E70100CC22002014E7010083
:10CFD00030E7010000B583B000231022064901A804
:10CFE000FFF7FCFE002801D003B000BD01A90348F3
:10CFF00000F0F4FAF8E7C046CC2200204CE701002C
:10D0000030B5194889B0FEF787FD01A80200174B1B
:10D0100032CB32C2164B174A049380235B00059330
:10D0200006920793144AFD3B04A9FEF7E9FC002889
:10D0300016D1124800F0D2FAFFF75AFFFFF76AFF45
:10D04000FFF782FF0A20FEF767FDFFF7A3FF0A2024
:10D05000FEF762FDFFF7BEFF0A20FEF75DFDFEE76B
:10D06000FEF7D6F8E5E7C046B80B000060E7010020
:10D07000EC220020EC23002085CE010050E70100C7
:10D080002D4B1B78012B00D070472C4B1B681B07C6
:10D09000FAD12B4AF0231268110019401A4201D02C
:10D0A000102946D1274A12681A421FD0F022244B79
:10D0B0001B681340402B29D0F022214B1B681340E2
:10D0C000A02B01D0D02BDFD1F0231E4A12681A42C8
:10D0D000DAD11D4A1368012B04D01C4B136013686E
:10D0E000012BFCD1C0221A4B1A60CDE7194B1A4A0A
:10D0F0001A608022194B12021A600F4B1B78012B09
:10D10000C2D10E4B1B681B07D0D0BDE70D4B1B686F
:10D110001342D1D18022C1230121DB00D205D1509D
:10D12000054B1B78012BAFD1044B1B681B07C3D0E9
:10D13000AAE73029B6D0B9E7E00F00F0E40F00F01D
:10D14000E80F00F0EC0F00F000EC064075930000D3
:10D1500014EC064004050040DFFF07C0186C0040D7
:10D1600052DF704761DF7047F0B5D6464F464646FE
:10D17000C0B5374B82B01E68994675427541354B34
:10D18000EDB29A461B68002B4ED1002E05D102B09D
:10D19000E0BCBA46B146A846F0BD2F4B01269846E2
:10D1A0002E4F01AC3B882100238043461D68280098
:10D1B000FFF7D8FF05282CD0002824D14B462800A3
:10D1C0001B689847002E22D12000FFF7C9FF0528D1
:10D1D0001DD0002838D10025534601981B68984778
:10D1E000002D0BD02000FFF7BBFF01250528CED076
:10D1F0000028F1D0FEF70CF8002DF3D1164B0026D5
:10D200009846164FCEE7FEF703F8002EDCD0012635
:10D21000C8E7002EBBD12000FFF7A2FF0528B6D03B
:10D2200000280ED10125D7E701AC2000FFF798FFB9
:10D230000528DDD1002EAAD0074B01269846074FBE
:10D24000B0E7FDF7E5FFCDE7FDF7E2FF0026A9E730
:10D25000F0240020FC24002000250020EC240020E5
:10D2600010B5094B1B68002B06D09847002800D149
:10D2700010BDFDF7CDFFFBE7044B1B78002BF7D06B
:10D28000FFF772FFF4E7C046F4240020F8240020E2
:10D2900003210A4802680A430260094802680A43F7
:10D2A00002600849084A094B9B1A03DD043BC85831
:10D2B000D050FBDCFFF7E4FEFDF72CFF2405004017
:10D2C000540500400CE8010080200020F0200020E0
:10D2D000FEE7FEE7FEE7FEE7FEE7FEE70022430883
:10D2E0008B4274D303098B425FD3030A8B4244D32E
:10D2F000030B8B4228D3030C8B420DD3FF22090270
:10D3000012BA030C8B4202D31212090265D0030B2E
:10D310008B4219D300E0090AC30B8B4201D3CB0324
:10D32000C01A5241830B8B4201D38B03C01A524166
:10D33000430B8B4201D34B03C01A5241030B8B4268
:10D3400001D30B03C01A5241C30A8B4201D3CB0253
:10D35000C01A5241830A8B4201D38B02C01A524138
:10D36000430A8B4201D34B02C01A5241030A8B423B
:10D3700001D30B02C01A5241CDD2C3098B4201D353
:10D38000CB01C01A524183098B4201D38B01C01AD1
:10D39000524143098B4201D34B01C01A5241030948
:10D3A0008B4201D30B01C01A5241C3088B4201D3F7
:10D3B000CB00C01A524183088B4201D38B00C01AA4
:10D3C000524143088B4201D34B00C01A5241411ACB
:10D3D00000D20146524110467047FFE701B50020D8
:10D3E00000F0F0F802BDC0460029F7D076E770479C
:10D3F00003460B437FD4002243088B4274D30309B6
:10D400008B425FD3030A8B4244D3030B8B4228D356
:10D41000030C8B420DD3FF22090212BA030C8B427C
:10D4200002D31212090265D0030B8B4219D300E01C
:10D43000090AC30B8B4201D3CB03C01A5241830BA1
:10D440008B4201D38B03C01A5241430B8B4201D351
:10D450004B03C01A5241030B8B4201D30B03C01A7A
:10D460005241C30A8B4201D3CB02C01A5241830AF4
:10D470008B4201D38B02C01A5241430A8B4201D323
:10D480004B02C01A5241030A8B4201D30B02C01A4D
:10D490005241CDD2C3098B4201D3CB01C01A5241B4
:10D4A00083098B4201D38B01C01A524143098B423D
:10D4B00001D34B01C01A524103098B4201D30B0126
:10D4C000C01A5241C3088B4201D3CB00C01A52414B
:10D4D00083088B4201D38B00C01A524143088B4210
:10D4E00001D34B00C01A5241411A00D201465241A9
:10D4F000104670475DE0CA0F00D04942031000D3C8
:10D500004042534000229C4603098B422DD3030A1C
:10D510008B4212D3FC22890112BA030A8B420CD32C
:10D52000890192118B4208D3890192118B4204D355
:10D5300089013AD0921100E08909C3098B4201D3D5
:10D54000CB01C01A524183098B4201D38B01C01A0F
:10D55000524143098B4201D34B01C01A5241030986
:10D560008B4201D30B01C01A5241C3088B4201D335
:10D57000CB00C01A524183088B4201D38B00C01AE2
:10D580005241D9D243088B4201D34B00C01A5241B9
:10D59000411A00D20146634652415B10104601D346
:10D5A0004042002B00D54942704763465B1000D3D0
:10D5B000404201B5002000F005F802BD0029F8D076
:10D5C00016E770477047C046002310B59A4200D155
:10D5D00010BDCC5CC4540133F8E700000FB40B4B12
:10D5E00013B51C68002C05D0A369002B02D12000C4
:10D5F00000F070F805AB2000049AA168019300F0D8
:10D60000CDF916BC08BC04B01847C04680200020E5
:10D61000002310B50400036043608360818143668A
:10D620001900C28103614361836108225C30FDF708
:10D63000E5FD054B24626362044BA362044BE36285
:10D64000044B236310BDC04639DF010061DF0100D8
:10D6500099DF0100C5DF010010B5024900F0BAF8FA
:10D6600010BDC046D1E2010070B568254A1E554381
:10D670000E002900743100F0F3F8041E08D00021D8
:10D680002A00016046600C30A0606832FDF7B6FDEC
:10D69000200070BD10B5024800F0BDF810BDC046B6
:10D6A0000525002010B5024800F0B6F810BDC046B0
:10D6B0000525002010B5024800F0ADF810BDC046A9
:10D6C0000625002010B5024800F0A6F810BDC0469F
:10D6D0000625002013B50400FFF7ECFFA369002B1B
:10D6E00002D0FFF7EFFF13BDA364E3642365134B80
:10D6F000134A1B68A2620193A34201D10123A361D3
:10D70000200000F01FF86060200000F01BF8A0600F
:10D71000200000F017F800220421E0606068FFF7A5
:10D7200077FF01220921A068FFF772FF0222122170
:10D73000E068FFF76DFF0123A361D2E714E6010063
:10D7400059D60100F8B50700FFF7A4FF1F4B1E686C
:10D75000B369002B02D13000FFF7BCFF4836B46834
:10D760007368013B04D53368002B22D03668F6E796
:10D770000C22A55E002D1AD12000154B5830E36015
:10D78000656600F047F8FFF78DFF200008222900AA
:10D790002560A560656025616561A5615C30FDF768
:10D7A0002DFD6563A563A564E5642000F8BD6834BC
:10D7B000D7E704213800FFF757FF041E3060D5D1AA
:10D7C000FFF770FF0C233B60EFE7C04614E6010053
:10D7D0000100FFFFF7B5040006000027019148345F
:10D7E0006368A5680093009B013B009304D52468FF
:10D7F000002CF5D13800FEBDAB89012B08D90E22D3
:10D80000AB5E013304D029003000019B98470743E9
:10D810006835E8E7704770477047000070B50F4EF5
:10D820000D0031680400002902D100F073FB306064
:10D830002900200000F06EFB431C0AD00323C51C06
:10D840009D43A84207D0291A200000F063FB431C27
:10D8500001D101256D42280070BDC0460C25002075
:10D86000F7B50322CB1C9343083306001F000C2B93
:10D8700032D20C27B94231D8300000F0F5FD324DDC
:10D880002B681C00002C2ED139003000FFF7C6FF9A
:10D890000400431C1ED12C682500002D4AD12368AA
:10D8A0002900E3183000019300F034FB019B834210
:10D8B00043D123680337FF1A03239F4308370C2FF4
:10D8C00000D20C2739003000FFF7A8FF431C34D0EA
:10D8D0002368DF19276013E0002BCBDA0C23002527
:10D8E00033602800FEBD2268D11B20D40B2917D934
:10D8F000E2192760A34211D12A6063681160536066
:10D900003000250000F0B8FD07220B35231D95439C
:10D91000EA1A9D42E5D05B1BA350E2E75A60ECE7B0
:10D920006268A34201D12A60EAE75A60E8E723006F
:10D930006468A7E72C006D68AFE70C233000336004
:10D9400000F09AFDCDE7C04608250020936810B589
:10D95000013B9360002B04DA9469A34207DB0A2998
:10D9600005D01368581C10601970080010BD00F035
:10D970002FFB0100F9E7F8B506000F001400D518D9
:10D98000AC4201D1002007E021783A003000FFF7D7
:10D99000DDFF0134431CF3D1F8BD0000F0B5A1B0A8
:10D9A00006000C001F000392002804D08369002B9E
:10D9B00001D1FFF78FFE8E4B9C421CD17468636EC1
:10D9C000DB0705D4A3899B0502D4A06DFFF723FFD5
:10D9D000A3891B0702D52369002B1DD1210030002C
:10D9E00000F060FB002817D0636EDB070DD5012027
:10D9F000404221B0F0BD7F4B9C4201D1B468DEE7CC
:10DA00007D4B9C42DBD1F468D9E7A3899B05EED41A
:10DA1000A06DFFF701FFEAE7002308AD6B6120333B
:10DA20006B761033AB760797039F3B78002B01D0C2
:10DA3000252B4ED1039BFB1A0593039B9F420DD0D0
:10DA4000059B21003000039AFFF795FF431C00D18E
:10DA5000B5E06A69059B944663446B613B78002B93
:10DA600000D1ACE001227B1C0393002352426A6088
:10DA700004A9543252182B60EB60AB601370AB6595
:10DA8000039B052219785D4800F0E2FC039B5F1CB4
:10DA9000002820D12A68D30604D5532304A95B1893
:10DAA00020211970130704D5532304A95B182B21D7
:10DAB0001970039B1B782A2B16D00021EB68039F5B
:10DAC0003A78781C303A8446092A4FD9002911D176
:10DAD00017E00137A9E7494B2A68C01A01238340A0
:10DAE00013432B600397CBE7079B191D1B68079116
:10DAF000002B01DB0B9304E05B42EB60022313433A
:10DB00002B603B782E2B0AD17B782A2B37D1079BB1
:10DB100002371A1D1B680792002B2DDB0993032285
:10DB20003978374800F094FC002807D0344B2A6835
:10DB3000C01A40238340134301372B6039787B1C84
:10DB4000062230480393297600F082FC002845D055
:10DB50002D4B002B27D10722079B07339343083314
:10DB600007936B69049A9B186B615DE70A214B432D
:10DB700067469B180939A3E701235B42CEE70023E0
:10DB80001A0001376B603978781C303984460929CE
:10DB900003D9002BC3D00992C1E70A235A43674631
:10DBA0005218093BEFE707AB009322002900300031
:10DBB000164B00E000BF0490049B0133D1D1636E8B
:10DBC000DB0705D4A3899B0502D4A06DFFF724FED3
:10DBD000A3895B0600D50AE70D980AE707AB009317
:10DBE000220029003000094B00F082F8E3E7C0462C
:10DBF0008CE70100ACE701006CE70100CCE7010015
:10DC0000D2E70100D6E701000000000077D901004B
:10DC1000F7B5150001938A680B690C0000909342D8
:10DC200000DA130022002B6043321278002A01D060
:10DC300001332B6023689B0602D52B6802332B60CF
:10DC40002268062317001F401A4227D023004333BF
:10DC50001B785A1E93412268920630D42200019903
:10DC60000098089E4332B047431C25D00623206805
:10DC70002A68E16800250340042B03D18D1AEB4389
:10DC8000DB171D40A3682269934201DD9B1AED1842
:10DC90000027BD4220D1002010E00137E3682A6848
:10DCA0009B1ABB42D2DD2200012301990098089EF5
:10DCB0001932B047431CF0D101204042FEBD302054
:10DCC000E1184331087021005A1C45310978A21827
:10DCD000433202331170C1E72200012301990098F9
:10DCE000089E1A32B047431CE6D00137D1E7000046
:10DCF000F0B58BB006920A00433207930590049268
:10DD00000A7E0C00109B782A07D8622A09D8002ABC
:10DD100000D1C1E0582A00D18CE026004236327092
:10DD200022E0100063381528F7D800F02FFC160009
:10DD30001F00F6FFF6FFF6FFF6FF1F00F6FFF6FFE7
:10DD4000F6FFF6FFA80036009A00F6FFF6FFB900CE
:10DD5000F6FF3600F6FFF6FF9E0026001A684236F0
:10DD6000111D1960136833700123A7E00868196852
:10DD70000A1D05060BD50D681A60002D03DA2D2348
:10DD8000049A6D421370614B0A2703931BE00D68E0
:10DD90001A604106F1D52DB2EFE70D681968081D2C
:10DDA00018602E0601D50D6803E06D06FBD50D68E1
:10DDB000ADB2564B082703936F2A00D002372300D9
:10DDC000002243331A706368A360002B03DB042234
:10DDD000216891432160002D02D1049E002B0CD0BC
:10DDE000049E28003900FFF7FFFA039B013E5B5CAD
:10DDF00033702B0005009F42F3D9082F09D1236807
:10DE0000DB0706D563682269934202DC3023013EBA
:10DE10003370049B9B1B2361079B21000093059893
:10DE2000069B09AAFFF7F4FE431C4CD10120404297
:10DE30000BB0F0BD45310A70344A03921A6821686C
:10DE400020CA1A60080616D5CB0702D5202319432D
:10DE500021601027002DB2D1202322689A4322602E
:10DE6000ADE7202209680A4322602200782145326A
:10DE70001170274AE1E74806E6D5ADB2E4E71A6833
:10DE80000D68101D4969186013682E0601D51960C8
:10DE900002E06D06FBD519800023049E2361BBE7D9
:10DEA0001A68111D1960166800213000626800F0C0
:10DEB000CFFA002801D0801B6060636823610023D3
:10DEC000049A1370A8E72369320006990598079D04
:10DED000A847431CAAD023689B0715D4099BE06878
:10DEE0009842A5DA1800A3E72200012306990598B5
:10DEF000079E1932B047431C98D00135E368099A50
:10DF00009B1AAB42F0DCE9E70025F7E7DDE701000B
:10DF1000EEE70100002370B5064D040008002B60F9
:10DF200000F05EFB431C03D12B68002B00D0236064
:10DF300070BDC0461025002070B50C000E25495F4D
:10DF400000F0ECFA002803DB636D1B18636570BDFD
:10DF5000A389024A1340A381F9E7C046FFEFFFFF00
:10DF6000F8B51F008B8905000C001600DB0505D5F0
:10DF70000E23C95E0022022300F0EAF9A389054AB4
:10DF800028001340A38132000E23E15E3B0000F025
:10DF900075F8F8BDFFEFFFFF70B50C000E25495F67
:10DFA00000F0D6F9A389421C03D1054A1340A3818E
:10DFB00070BD802252011343A3816065F8E7C0461B
:10DFC000FFEFFFFF10B50E23C95E00F0E3F810BDB0
:10DFD000F8B505000E001400002804D08369002B5A
:10DFE00001D1FFF777FB224B9C422ED16C68A369CD
:10DFF000A360A3891B0732D52369002B2FD0236888
:10E000002269F7B2981A6369F6B2834205DC2100EF
:10E01000280000F05DF9002827D1A3680130013BFA
:10E02000A36023685A1C22601F706369834204D076
:10E03000A389DB0707D50A2E05D12100280000F0AF
:10E0400047F9002811D13000F8BD0A4B9C4201D19C
:10E05000AC68CCE7084B9C42C9D1EC68C7E721000B
:10E06000280000F01FF80028C9D001267642EAE710
:10E070008CE70100ACE701006CE7010070B504001B
:10E08000080011001A000023054D2B60FDF73EFC2F
:10E09000431C03D12B68002B00D0236070BDC04609
:10E0A00010250020374B70B51D6806000C00002DB0
:10E0B00005D0AB69002B02D12800FFF70BFB324BD8
:10E0C0009C420FD16C680C23E25E93B211072DD4F1
:10E0D000D90611D409230120336037331343A381B8
:10E0E000404270BD294B9C4201D1AC68EBE7284B04
:10E0F0009C42E8D1EC68E6E75B0713D5616B002929
:10E1000008D023004433994202D0300000F0BCF91B
:10E11000002363632422A3899343A38100236360C4
:10E12000236923600823A2891343A3812369002B59
:10E130000BD1A0218022A389890092000B40934239
:10E1400003D02100300000F03FF90C22A35E012033
:10E150001A0099B2024003420FD00022A260626905
:10E160005242A261002022698242BAD10A06B8D581
:10E1700040221343A3810138B3E7880700D46269C2
:10E18000A260EFE7802000208CE70100ACE70100EF
:10E190006CE70100002370B5064D040008002B60F9
:10E1A00000F0FEF9431C03D12B68002B00D0236044
:10E1B00070BDC04610250020F7B58B8905000C0006
:10E1C0001A075FD44A68002A04DC0A6C002A01DCC2
:10E1D0000020FEBDE76A002FFAD0002280212E68C1
:10E1E0002A601A0049010A400B4234D0606DA389AD
:10E1F0005B0706D56368C01A636B002B01D0236CE4
:10E20000C01A0200216A00232800E76AB847A189E2
:10E21000431C06D12B681D2B31D82C4ADA40D3077A
:10E220002DD50023636023692360CB0405D5431CEF
:10E2300002D12B68002B00D16065616B2E60002934
:10E24000C6D023004433994202D0280000F01CF9C4
:10E2500000206063BDE701232800216AB847431C02
:10E26000C5D12B68002BC2D01D2B01D0162B01D19C
:10E270002E60ADE74023A2891343A381A9E7402381
:10E280000B43FAE70F69002FA2D00A680F60D21B78
:10E29000019200229B0700D14A69A260019B002BDA
:10E2A00000DC95E73A002800019B216AA66AB04786
:10E2B000002806DC40230120A28940421343A381A9
:10E2C00087E7019B3F181B1A0193E7E701004020F5
:10E2D0000B6970B505000C00002B02D10025280049
:10E2E00070BD002804D08369002B01D1FFF7F2F93B
:10E2F000144B9C421BD16C680C22A35E002BEDD00A
:10E30000626ED20704D49B0502D4A06DFFF783FA96
:10E3100028002100FFF750FF636E0500DB07DED405
:10E32000A3899B05DBD4A06DFFF776FAD7E7064BF0
:10E330009C4201D1AC68DFE7044B9C42DCD1EC6825
:10E34000DAE7C0468CE70100ACE701006CE70100AA
:10E3500070B50400080011001A000023054D2B6061
:10E3600000F036F9431C03D12B68002B00D023604A
:10E3700070BDC0461025002070B50E001D000E2394
:10E38000C95E140096B0002908DA0C22B35E0022A0
:10E390002A601B0611D48023DB000FE06A4600F0E0
:10E3A000D1F80028F1DBF02301991B021940054B3D
:10E3B000C9184B4259412960EDE7402300202360F2
:10E3C00016B070BD00E0FFFFF7B502268B8905008F
:10E3D0000C00334206D0230047332360236101231E
:10E3E0006361F7BD6A4601ABFFF7C6FF00990700FE
:10E3F0002800FFF735FA002808D10C22A35E9A0501
:10E40000EFD4032293431E43A681E4E70F4BAB6294
:10E410008023A28920601343A381009B2061636154
:10E42000019B002B0DD028000E23E15E00F09CF82C
:10E43000002806D00322A38993431A000123134323
:10E44000A381A0890743A781CBE7C04659D6010025
:10E45000C9B28218904201D10020704703788B42E4
:10E46000FBD00130F6E7000010B50248FFF7D3F902
:10E4700010BDC0460425002010B50248FFF7CCF9B6
:10E4800010BDC0460425002070B50500002910D03D
:10E490000C1F2368002B00DAE4182800FFF7E4FFC4
:10E4A0001D4A1368002B05D1636014602800FFF734
:10E4B000E3FF70BDA34208D9216860188342F3D1FD
:10E4C00018685B6841182160EEE71A005B68002B52
:10E4D00001D0A342F9D911685018A0420BD120688D
:10E4E0000918501811608342E0D118685B68411820
:10E4F00011605360DAE7A04202D90C232B60D5E704
:10E5000021686018834203D118685B684118216054
:10E5100063605460CAE7C0460825002070B5040057
:10E52000080011001A000023054D2B60FDF7FCF9CF
:10E53000431C03D12B68002B00D0236070BDC04664
:10E5400010250020002370B5064D040008001100BE
:10E550002B6000F02DF8431C03D12B68002B00D05A
:10E56000236070BD10250020002370B5064D040007
:10E5700008002B6000F024F8431C03D12B68002B0B
:10E5800000D0236070BDC0461025002003B4714642
:10E59000490840004900095E49008E4403BC7047A9
:10E5A00058220120014B40421A607047102500207C
:10E5B00058220120014B40421A607047102500206C
:10E5C0005822024B00201A607047C04610250020D8
:10E5D00058220120014B40421A607047102500204C
:10E5E000044A03001068002802D0C3181360704763
:10E5F0000148FAE71425002018250020F8B5C04688
:10E60000F8BC08BC9E467047F8B5C046F8BC08BCCC
:10E610009E46704784200020090000000B00000087
:10E620000A000000080000000000000000000000D8
:10E6300000E0D70103000000090000000B0000000B
:10E640000A000000080000000000000000000000B8
:10E6500000E0D701030000000D0A7053746F72616F
:10E66000676520696E697420737563636573730DE4
:10E670000A0000000D0A7053746F726167652069AB
:10E680006E6974206661696C65640D0A00000000A3
:10E690000D0A7053746F726167652072656720732D
:10E6A0007563636573730D0A000000000D0A7053F3
:10E6B000746F7261676520726567206661696C6559
:10E6C000640D0A000D0A7053746F726167652067EC
:10E6D000657420494420737563636573730D0A0084
:10E6E0000D0A25640D0A00000D0A7053746F7261E3
:10E6F000676520676574204944206661696C6564BC
:10E700000D0A00000D0A20746F2073746F7265206B
:10E710000D0A00000D0A7053746F726167652073F3
:10E72000746F726520737563636573730D0A0000FF
:10E730000D0A7053746F726167652073746F726530
:10E74000206661696C65640D0A00000025630A009B
:10E750000D0A55415254205374617274210D0A0000
:10E760000B09080A0100000000E0D70100000000CA
:10E770000000000000000000000000000000000099
:10E780000000000000000000000000000000000089
:10E790000000000000000000000000000000000079
:10E7A0000000000000000000000000000000000069
:10E7B0000000000000000000000000000000000059
:10E7C000000000000000000000000000232D302B9E
:10E7D0002000686C4C006566674546470030313262
:10E7E00033343536373839414243444546003031B9
:10E7F0003233343536373839616263646566000018
:04E800000000000014
:08E8040004C9FF7F01000000C0
:10E80C0084200020000000008CE70100ACE7010030
:10E81C006CE7010000000000000000000000000098
:10E82C0000000000000000000000000000000000DC
:10E83C0000000000000000000000000000000000CC
:10E84C0000000000000000000000000000000000BC
:10E85C0000000000000000000000000000000000AC
:0CE86C0000000000E9B00100C1B0010094
:040000031000D29186
:00000001FF
